{
  "_format": "hh-sol-artifact-1",
  "contractName": "MagixCrowdfunding",
  "sourceName": "contracts/magix.sol",
  "abi": [
    {
      "inputs": [],
      "stateMutability": "nonpayable",
      "type": "constructor"
    },
    {
      "inputs": [],
      "name": "EnforcedPause",
      "type": "error"
    },
    {
      "inputs": [],
      "name": "ExpectedPause",
      "type": "error"
    },
    {
      "inputs": [
        {
          "internalType": "address",
          "name": "owner",
          "type": "address"
        }
      ],
      "name": "OwnableInvalidOwner",
      "type": "error"
    },
    {
      "inputs": [
        {
          "internalType": "address",
          "name": "account",
          "type": "address"
        }
      ],
      "name": "OwnableUnauthorizedAccount",
      "type": "error"
    },
    {
      "inputs": [],
      "name": "ReentrancyGuardReentrantCall",
      "type": "error"
    },
    {
      "anonymous": false,
      "inputs": [
        {
          "indexed": true,
          "internalType": "uint256",
          "name": "campaignId",
          "type": "uint256"
        },
        {
          "indexed": true,
          "internalType": "address",
          "name": "creator",
          "type": "address"
        },
        {
          "indexed": false,
          "internalType": "string",
          "name": "title",
          "type": "string"
        },
        {
          "indexed": false,
          "internalType": "uint256",
          "name": "goalAmount",
          "type": "uint256"
        },
        {
          "indexed": false,
          "internalType": "uint256",
          "name": "deadline",
          "type": "uint256"
        }
      ],
      "name": "CampaignCreated",
      "type": "event"
    },
    {
      "anonymous": false,
      "inputs": [
        {
          "indexed": true,
          "internalType": "uint256",
          "name": "campaignId",
          "type": "uint256"
        },
        {
          "indexed": false,
          "internalType": "enum MagixCrowdfunding.CampaignState",
          "name": "newState",
          "type": "uint8"
        }
      ],
      "name": "CampaignStateChanged",
      "type": "event"
    },
    {
      "anonymous": false,
      "inputs": [
        {
          "indexed": true,
          "internalType": "uint256",
          "name": "campaignId",
          "type": "uint256"
        },
        {
          "indexed": true,
          "internalType": "address",
          "name": "contributor",
          "type": "address"
        },
        {
          "indexed": false,
          "internalType": "uint256",
          "name": "amount",
          "type": "uint256"
        },
        {
          "indexed": false,
          "internalType": "uint256",
          "name": "newTotal",
          "type": "uint256"
        }
      ],
      "name": "Contributed",
      "type": "event"
    },
    {
      "anonymous": false,
      "inputs": [
        {
          "indexed": true,
          "internalType": "address",
          "name": "owner",
          "type": "address"
        },
        {
          "indexed": false,
          "internalType": "uint256",
          "name": "amount",
          "type": "uint256"
        }
      ],
      "name": "EmergencyWithdraw",
      "type": "event"
    },
    {
      "anonymous": false,
      "inputs": [
        {
          "indexed": true,
          "internalType": "uint256",
          "name": "campaignId",
          "type": "uint256"
        },
        {
          "indexed": true,
          "internalType": "address",
          "name": "creator",
          "type": "address"
        },
        {
          "indexed": false,
          "internalType": "uint256",
          "name": "amount",
          "type": "uint256"
        },
        {
          "indexed": false,
          "internalType": "uint256",
          "name": "platformFee",
          "type": "uint256"
        }
      ],
      "name": "FundsReleased",
      "type": "event"
    },
    {
      "anonymous": false,
      "inputs": [
        {
          "indexed": true,
          "internalType": "address",
          "name": "previousOwner",
          "type": "address"
        },
        {
          "indexed": true,
          "internalType": "address",
          "name": "newOwner",
          "type": "address"
        }
      ],
      "name": "OwnershipTransferred",
      "type": "event"
    },
    {
      "anonymous": false,
      "inputs": [
        {
          "indexed": false,
          "internalType": "address",
          "name": "account",
          "type": "address"
        }
      ],
      "name": "Paused",
      "type": "event"
    },
    {
      "anonymous": false,
      "inputs": [
        {
          "indexed": true,
          "internalType": "uint256",
          "name": "campaignId",
          "type": "uint256"
        },
        {
          "indexed": true,
          "internalType": "address",
          "name": "contributor",
          "type": "address"
        },
        {
          "indexed": false,
          "internalType": "uint256",
          "name": "amount",
          "type": "uint256"
        }
      ],
      "name": "Refunded",
      "type": "event"
    },
    {
      "anonymous": false,
      "inputs": [
        {
          "indexed": false,
          "internalType": "address",
          "name": "account",
          "type": "address"
        }
      ],
      "name": "Unpaused",
      "type": "event"
    },
    {
      "stateMutability": "payable",
      "type": "fallback"
    },
    {
      "inputs": [],
      "name": "BASIS_POINTS",
      "outputs": [
        {
          "internalType": "uint256",
          "name": "",
          "type": "uint256"
        }
      ],
      "stateMutability": "view",
      "type": "function"
    },
    {
      "inputs": [],
      "name": "PLATFORM_FEE_BPS",
      "outputs": [
        {
          "internalType": "uint256",
          "name": "",
          "type": "uint256"
        }
      ],
      "stateMutability": "view",
      "type": "function"
    },
    {
      "inputs": [],
      "name": "SUCCESS_FEE_BPS",
      "outputs": [
        {
          "internalType": "uint256",
          "name": "",
          "type": "uint256"
        }
      ],
      "stateMutability": "view",
      "type": "function"
    },
    {
      "inputs": [
        {
          "internalType": "uint256",
          "name": "",
          "type": "uint256"
        },
        {
          "internalType": "uint256",
          "name": "",
          "type": "uint256"
        }
      ],
      "name": "campaignContributions",
      "outputs": [
        {
          "internalType": "address",
          "name": "contributor",
          "type": "address"
        },
        {
          "internalType": "uint256",
          "name": "amount",
          "type": "uint256"
        },
        {
          "internalType": "uint256",
          "name": "timestamp",
          "type": "uint256"
        }
      ],
      "stateMutability": "view",
      "type": "function"
    },
    {
      "inputs": [
        {
          "internalType": "uint256",
          "name": "",
          "type": "uint256"
        }
      ],
      "name": "campaigns",
      "outputs": [
        {
          "internalType": "uint256",
          "name": "id",
          "type": "uint256"
        },
        {
          "internalType": "address payable",
          "name": "creator",
          "type": "address"
        },
        {
          "internalType": "string",
          "name": "title",
          "type": "string"
        },
        {
          "internalType": "string",
          "name": "description",
          "type": "string"
        },
        {
          "internalType": "string",
          "name": "imageUrl",
          "type": "string"
        },
        {
          "internalType": "uint256",
          "name": "goalAmount",
          "type": "uint256"
        },
        {
          "internalType": "uint256",
          "name": "raisedAmount",
          "type": "uint256"
        },
        {
          "internalType": "uint256",
          "name": "deadline",
          "type": "uint256"
        },
        {
          "internalType": "uint256",
          "name": "createdAt",
          "type": "uint256"
        },
        {
          "internalType": "enum MagixCrowdfunding.CampaignState",
          "name": "state",
          "type": "uint8"
        },
        {
          "internalType": "bool",
          "name": "fundsWithdrawn",
          "type": "bool"
        },
        {
          "internalType": "uint256",
          "name": "contributorCount",
          "type": "uint256"
        }
      ],
      "stateMutability": "view",
      "type": "function"
    },
    {
      "inputs": [
        {
          "internalType": "uint256",
          "name": "_campaignId",
          "type": "uint256"
        }
      ],
      "name": "contribute",
      "outputs": [],
      "stateMutability": "payable",
      "type": "function"
    },
    {
      "inputs": [
        {
          "internalType": "uint256",
          "name": "",
          "type": "uint256"
        },
        {
          "internalType": "address",
          "name": "",
          "type": "address"
        }
      ],
      "name": "contributorAmounts",
      "outputs": [
        {
          "internalType": "uint256",
          "name": "",
          "type": "uint256"
        }
      ],
      "stateMutability": "view",
      "type": "function"
    },
    {
      "inputs": [
        {
          "internalType": "address",
          "name": "",
          "type": "address"
        },
        {
          "internalType": "uint256",
          "name": "",
          "type": "uint256"
        }
      ],
      "name": "contributorCampaigns",
      "outputs": [
        {
          "internalType": "uint256",
          "name": "",
          "type": "uint256"
        }
      ],
      "stateMutability": "view",
      "type": "function"
    },
    {
      "inputs": [
        {
          "internalType": "string",
          "name": "_title",
          "type": "string"
        },
        {
          "internalType": "string",
          "name": "_description",
          "type": "string"
        },
        {
          "internalType": "string",
          "name": "_imageUrl",
          "type": "string"
        },
        {
          "internalType": "uint256",
          "name": "_goalAmount",
          "type": "uint256"
        },
        {
          "internalType": "uint256",
          "name": "_durationDays",
          "type": "uint256"
        }
      ],
      "name": "createCampaign",
      "outputs": [
        {
          "internalType": "uint256",
          "name": "",
          "type": "uint256"
        }
      ],
      "stateMutability": "nonpayable",
      "type": "function"
    },
    {
      "inputs": [
        {
          "internalType": "address",
          "name": "",
          "type": "address"
        },
        {
          "internalType": "uint256",
          "name": "",
          "type": "uint256"
        }
      ],
      "name": "creatorCampaigns",
      "outputs": [
        {
          "internalType": "uint256",
          "name": "",
          "type": "uint256"
        }
      ],
      "stateMutability": "view",
      "type": "function"
    },
    {
      "inputs": [],
      "name": "emergencyWithdraw",
      "outputs": [],
      "stateMutability": "nonpayable",
      "type": "function"
    },
    {
      "inputs": [
        {
          "internalType": "uint256",
          "name": "_campaignId",
          "type": "uint256"
        }
      ],
      "name": "getCampaign",
      "outputs": [
        {
          "components": [
            {
              "internalType": "uint256",
              "name": "id",
              "type": "uint256"
            },
            {
              "internalType": "address payable",
              "name": "creator",
              "type": "address"
            },
            {
              "internalType": "string",
              "name": "title",
              "type": "string"
            },
            {
              "internalType": "string",
              "name": "description",
              "type": "string"
            },
            {
              "internalType": "string",
              "name": "imageUrl",
              "type": "string"
            },
            {
              "internalType": "uint256",
              "name": "goalAmount",
              "type": "uint256"
            },
            {
              "internalType": "uint256",
              "name": "raisedAmount",
              "type": "uint256"
            },
            {
              "internalType": "uint256",
              "name": "deadline",
              "type": "uint256"
            },
            {
              "internalType": "uint256",
              "name": "createdAt",
              "type": "uint256"
            },
            {
              "internalType": "enum MagixCrowdfunding.CampaignState",
              "name": "state",
              "type": "uint8"
            },
            {
              "internalType": "bool",
              "name": "fundsWithdrawn",
              "type": "bool"
            },
            {
              "internalType": "uint256",
              "name": "contributorCount",
              "type": "uint256"
            }
          ],
          "internalType": "struct MagixCrowdfunding.Campaign",
          "name": "",
          "type": "tuple"
        }
      ],
      "stateMutability": "view",
      "type": "function"
    },
    {
      "inputs": [
        {
          "internalType": "uint256",
          "name": "_campaignId",
          "type": "uint256"
        }
      ],
      "name": "getCampaignContributions",
      "outputs": [
        {
          "components": [
            {
              "internalType": "address",
              "name": "contributor",
              "type": "address"
            },
            {
              "internalType": "uint256",
              "name": "amount",
              "type": "uint256"
            },
            {
              "internalType": "uint256",
              "name": "timestamp",
              "type": "uint256"
            }
          ],
          "internalType": "struct MagixCrowdfunding.Contribution[]",
          "name": "",
          "type": "tuple[]"
        }
      ],
      "stateMutability": "view",
      "type": "function"
    },
    {
      "inputs": [
        {
          "internalType": "uint256",
          "name": "_campaignId",
          "type": "uint256"
        },
        {
          "internalType": "address",
          "name": "_contributor",
          "type": "address"
        }
      ],
      "name": "getContribution",
      "outputs": [
        {
          "internalType": "uint256",
          "name": "",
          "type": "uint256"
        }
      ],
      "stateMutability": "view",
      "type": "function"
    },
    {
      "inputs": [
        {
          "internalType": "address",
          "name": "_contributor",
          "type": "address"
        }
      ],
      "name": "getContributorCampaigns",
      "outputs": [
        {
          "internalType": "uint256[]",
          "name": "",
          "type": "uint256[]"
        }
      ],
      "stateMutability": "view",
      "type": "function"
    },
    {
      "inputs": [
        {
          "internalType": "address",
          "name": "_creator",
          "type": "address"
        }
      ],
      "name": "getCreatorCampaigns",
      "outputs": [
        {
          "internalType": "uint256[]",
          "name": "",
          "type": "uint256[]"
        }
      ],
      "stateMutability": "view",
      "type": "function"
    },
    {
      "inputs": [
        {
          "internalType": "uint256",
          "name": "_campaignId",
          "type": "uint256"
        },
        {
          "internalType": "address",
          "name": "_contributor",
          "type": "address"
        }
      ],
      "name": "isEligibleForRefund",
      "outputs": [
        {
          "internalType": "bool",
          "name": "",
          "type": "bool"
        }
      ],
      "stateMutability": "view",
      "type": "function"
    },
    {
      "inputs": [],
      "name": "owner",
      "outputs": [
        {
          "internalType": "address",
          "name": "",
          "type": "address"
        }
      ],
      "stateMutability": "view",
      "type": "function"
    },
    {
      "inputs": [],
      "name": "pause",
      "outputs": [],
      "stateMutability": "nonpayable",
      "type": "function"
    },
    {
      "inputs": [],
      "name": "paused",
      "outputs": [
        {
          "internalType": "bool",
          "name": "",
          "type": "bool"
        }
      ],
      "stateMutability": "view",
      "type": "function"
    },
    {
      "inputs": [],
      "name": "platformFeesCollected",
      "outputs": [
        {
          "internalType": "uint256",
          "name": "",
          "type": "uint256"
        }
      ],
      "stateMutability": "view",
      "type": "function"
    },
    {
      "inputs": [],
      "name": "renounceOwnership",
      "outputs": [],
      "stateMutability": "nonpayable",
      "type": "function"
    },
    {
      "inputs": [
        {
          "internalType": "uint256",
          "name": "_campaignId",
          "type": "uint256"
        }
      ],
      "name": "requestRefund",
      "outputs": [],
      "stateMutability": "nonpayable",
      "type": "function"
    },
    {
      "inputs": [],
      "name": "totalCampaigns",
      "outputs": [
        {
          "internalType": "uint256",
          "name": "",
          "type": "uint256"
        }
      ],
      "stateMutability": "view",
      "type": "function"
    },
    {
      "inputs": [],
      "name": "totalRaised",
      "outputs": [
        {
          "internalType": "uint256",
          "name": "",
          "type": "uint256"
        }
      ],
      "stateMutability": "view",
      "type": "function"
    },
    {
      "inputs": [
        {
          "internalType": "address",
          "name": "newOwner",
          "type": "address"
        }
      ],
      "name": "transferOwnership",
      "outputs": [],
      "stateMutability": "nonpayable",
      "type": "function"
    },
    {
      "inputs": [],
      "name": "unpause",
      "outputs": [],
      "stateMutability": "nonpayable",
      "type": "function"
    },
    {
      "inputs": [
        {
          "internalType": "uint256",
          "name": "_campaignId",
          "type": "uint256"
        }
      ],
      "name": "withdrawFunds",
      "outputs": [],
      "stateMutability": "nonpayable",
      "type": "function"
    },
    {
      "inputs": [],
      "name": "withdrawPlatformFees",
      "outputs": [],
      "stateMutability": "nonpayable",
      "type": "function"
    },
    {
      "stateMutability": "payable",
      "type": "receive"
    }
  ],
  "bytecode": "0x608060405234801561001057600080fd5b50336001600081905550600073ffffffffffffffffffffffffffffffffffffffff168173ffffffffffffffffffffffffffffffffffffffff160361008c5760006040517f1e4fbdf700000000000000000000000000000000000000000000000000000000815260040161008391906101c8565b60405180910390fd5b61009b816100c160201b60201c565b5060006002819055506000600381905550600060048190555060006005819055506101e3565b6000600160009054906101000a900473ffffffffffffffffffffffffffffffffffffffff16905081600160006101000a81548173ffffffffffffffffffffffffffffffffffffffff021916908373ffffffffffffffffffffffffffffffffffffffff1602179055508173ffffffffffffffffffffffffffffffffffffffff168173ffffffffffffffffffffffffffffffffffffffff167f8be0079c531659141344cd1fd0a4f28419497f9722a3daafe3b4186f6b6457e060405160405180910390a35050565b600073ffffffffffffffffffffffffffffffffffffffff82169050919050565b60006101b282610187565b9050919050565b6101c2816101a7565b82525050565b60006020820190506101dd60008301846101b9565b92915050565b6144c8806101f26000396000f3fe6080604052600436106101c65760003560e01c8063980f2e66116100f7578063c5c4744c11610095578063ddc8af6111610064578063ddc8af61146106be578063e081dbf9146106fb578063e1f1c4a714610738578063f2fde38b1461076357610206565b8063c5c4744c14610628578063d0b7830b14610653578063d3b0c32c1461066a578063db2e21bc146106a757610206565b8063b5e3c302116100d1578063b5e3c30214610555578063b808a84914610592578063c1cbbca7146105cf578063c45a577a146105eb57610206565b8063980f2e66146104c4578063a4b2409e14610501578063b36ffca61461052a57610206565b80635598f8cc1161016457806376edca3d1161013e57806376edca3d1461041a5780638045b3bd146104575780638456cb59146104825780638da5cb5b1461049957610206565b80635598f8cc1461039b5780635c975abb146103d8578063715018a61461040357610206565b8063155dd5ee116101a0578063155dd5ee146102f15780633f4ba83a1461031a578063539157bd14610331578063539aa77f1461037057610206565b806302932f561461024157806308ab48d21461026c578063141961bc146102a957610206565b36610206576040517f08c379a00000000000000000000000000000000000000000000000000000000081526004016101fd90612b97565b60405180910390fd5b6040517f08c379a000000000000000000000000000000000000000000000000000000000815260040161023890612c03565b60405180910390fd5b34801561024d57600080fd5b5061025661078c565b6040516102639190612c3c565b60405180910390f35b34801561027857600080fd5b50610293600480360381019061028e9190612cf5565b610792565b6040516102a09190612c3c565b60405180910390f35b3480156102b557600080fd5b506102d060048036038101906102cb9190612d35565b6107c3565b6040516102e89c9b9a99989796959493929190612e94565b60405180910390f35b3480156102fd57600080fd5b5061031860048036038101906103139190612d35565b6109f5565b005b34801561032657600080fd5b5061032f610e5b565b005b34801561033d57600080fd5b5061035860048036038101906103539190612f63565b610e6d565b60405161036793929190612fb2565b60405180910390f35b34801561037c57600080fd5b50610385610ed4565b6040516103929190612c3c565b60405180910390f35b3480156103a757600080fd5b506103c260048036038101906103bd9190612d35565b610ed9565b6040516103cf9190613181565b60405180910390f35b3480156103e457600080fd5b506103ed6111eb565b6040516103fa91906131a3565b60405180910390f35b34801561040f57600080fd5b50610418611202565b005b34801561042657600080fd5b50610441600480360381019061043c91906131be565b611216565b60405161044e919061329a565b60405180910390f35b34801561046357600080fd5b5061046c6112ad565b6040516104799190612c3c565b60405180910390f35b34801561048e57600080fd5b506104976112b2565b005b3480156104a557600080fd5b506104ae6112c4565b6040516104bb91906132bc565b60405180910390f35b3480156104d057600080fd5b506104eb60048036038101906104e6919061340c565b6112ee565b6040516104f89190612c3c565b60405180910390f35b34801561050d57600080fd5b5061052860048036038101906105239190612d35565b611643565b005b34801561053657600080fd5b5061053f6119a5565b60405161054c9190612c3c565b60405180910390f35b34801561056157600080fd5b5061057c600480360381019061057791906131be565b6119ab565b604051610589919061329a565b60405180910390f35b34801561059e57600080fd5b506105b960048036038101906105b491906134db565b611a42565b6040516105c691906131a3565b60405180910390f35b6105e960048036038101906105e49190612d35565b611dcb565b005b3480156105f757600080fd5b50610612600480360381019061060d91906134db565b6122e0565b60405161061f9190612c3c565b60405180910390f35b34801561063457600080fd5b5061063d612305565b60405161064a9190612c3c565b60405180910390f35b34801561065f57600080fd5b5061066861230b565b005b34801561067657600080fd5b50610691600480360381019061068c9190612d35565b61242e565b60405161069e919061361b565b60405180910390f35b3480156106b357600080fd5b506106bc612550565b005b3480156106ca57600080fd5b506106e560048036038101906106e09190612cf5565b6126ac565b6040516106f29190612c3c565b60405180910390f35b34801561070757600080fd5b50610722600480360381019061071d91906134db565b6126dd565b60405161072f9190612c3c565b60405180910390f35b34801561074457600080fd5b5061074d612738565b60405161075a9190612c3c565b60405180910390f35b34801561076f57600080fd5b5061078a600480360381019061078591906131be565b61273e565b005b60035481565b600a60205281600052604060002081815481106107ae57600080fd5b90600052602060002001600091509150505481565b60066020528060005260406000206000915090508060000154908060010160009054906101000a900473ffffffffffffffffffffffffffffffffffffffff16908060020180546108129061366c565b80601f016020809104026020016040519081016040528092919081815260200182805461083e9061366c565b801561088b5780601f106108605761010080835404028352916020019161088b565b820191906000526020600020905b81548152906001019060200180831161086e57829003601f168201915b5050505050908060030180546108a09061366c565b80601f01602080910402602001604051908101604052809291908181526020018280546108cc9061366c565b80156109195780601f106108ee57610100808354040283529160200191610919565b820191906000526020600020905b8154815290600101906020018083116108fc57829003601f168201915b50505050509080600401805461092e9061366c565b80601f016020809104026020016040519081016040528092919081815260200182805461095a9061366c565b80156109a75780601f1061097c576101008083540402835291602001916109a7565b820191906000526020600020905b81548152906001019060200180831161098a57829003601f168201915b5050505050908060050154908060060154908060070154908060080154908060090160009054906101000a900460ff16908060090160019054906101000a900460ff169080600a015490508c565b806002548110610a3a576040517f08c379a0000000000000000000000000000000000000000000000000000000008152600401610a31906136e9565b60405180910390fd5b816006600082815260200190815260200160002060010160009054906101000a900473ffffffffffffffffffffffffffffffffffffffff1673ffffffffffffffffffffffffffffffffffffffff163373ffffffffffffffffffffffffffffffffffffffff1614610adf576040517f08c379a0000000000000000000000000000000000000000000000000000000008152600401610ad69061377b565b60405180910390fd5b610ae76127c4565b610aef61280a565b600060066000858152602001908152602001600020905060016003811115610b1a57610b19612e02565b5b8160090160009054906101000a900460ff166003811115610b3e57610b3d612e02565b5b1480610b62575080600701544210158015610b6157508060050154816006015410155b5b610ba1576040517f08c379a0000000000000000000000000000000000000000000000000000000008152600401610b989061380d565b60405180910390fd5b8060090160019054906101000a900460ff1615610bf3576040517f08c379a0000000000000000000000000000000000000000000000000000000008152600401610bea90613879565b60405180910390fd5b60018160090160016101000a81548160ff02191690831515021790555060038160090160006101000a81548160ff02191690836003811115610c3857610c37612e02565b5b0217905550600081600601549050600061271060c883610c5891906138c8565b610c629190613939565b9050826005015483600601541115610ca2576000612710603284610c8691906138c8565b610c909190613939565b90508082610c9e919061396a565b9150505b60008183610cb0919061399e565b90508160056000828254610cc4919061396a565b9250508190555060008460010160009054906101000a900473ffffffffffffffffffffffffffffffffffffffff1673ffffffffffffffffffffffffffffffffffffffff1682604051610d1590613a03565b60006040518083038185875af1925050503d8060008114610d52576040519150601f19603f3d011682016040523d82523d6000602084013e610d57565b606091505b5050905080610d9b576040517f08c379a0000000000000000000000000000000000000000000000000000000008152600401610d9290613a64565b60405180910390fd5b8460010160009054906101000a900473ffffffffffffffffffffffffffffffffffffffff1673ffffffffffffffffffffffffffffffffffffffff16887f93e901cc5aea20ea9655887d9290a3215a5b3999c024812f4e4b749f7534349c8486604051610e08929190613a84565b60405180910390a3877f7c387a42b7678e1b26d65927d4a0176444d9c6509a72583dee248753b768db416003604051610e419190613aad565b60405180910390a25050505050610e5661284b565b505050565b610e63612855565b610e6b6128dc565b565b60076020528160005260406000208181548110610e8957600080fd5b9060005260206000209060030201600091509150508060000160009054906101000a900473ffffffffffffffffffffffffffffffffffffffff16908060010154908060020154905083565b60c881565b610ee1612aaf565b816002548110610f26576040517f08c379a0000000000000000000000000000000000000000000000000000000008152600401610f1d906136e9565b60405180910390fd5b6006600084815260200190815260200160002060405180610180016040529081600082015481526020016001820160009054906101000a900473ffffffffffffffffffffffffffffffffffffffff1673ffffffffffffffffffffffffffffffffffffffff1673ffffffffffffffffffffffffffffffffffffffff168152602001600282018054610fb59061366c565b80601f0160208091040260200160405190810160405280929190818152602001828054610fe19061366c565b801561102e5780601f106110035761010080835404028352916020019161102e565b820191906000526020600020905b81548152906001019060200180831161101157829003601f168201915b505050505081526020016003820180546110479061366c565b80601f01602080910402602001604051908101604052809291908181526020018280546110739061366c565b80156110c05780601f10611095576101008083540402835291602001916110c0565b820191906000526020600020905b8154815290600101906020018083116110a357829003601f168201915b505050505081526020016004820180546110d99061366c565b80601f01602080910402602001604051908101604052809291908181526020018280546111059061366c565b80156111525780601f1061112757610100808354040283529160200191611152565b820191906000526020600020905b81548152906001019060200180831161113557829003601f168201915b50505050508152602001600582015481526020016006820154815260200160078201548152602001600882015481526020016009820160009054906101000a900460ff1660038111156111a8576111a7612e02565b5b60038111156111ba576111b9612e02565b5b81526020016009820160019054906101000a900460ff16151515158152602001600a82015481525050915050919050565b6000600160149054906101000a900460ff16905090565b61120a612855565b611214600061293f565b565b6060600960008373ffffffffffffffffffffffffffffffffffffffff1673ffffffffffffffffffffffffffffffffffffffff1681526020019081526020016000208054806020026020016040519081016040528092919081815260200182805480156112a157602002820191906000526020600020905b81548152602001906001019080831161128d575b50505050509050919050565b603281565b6112ba612855565b6112c2612a05565b565b6000600160009054906101000a900473ffffffffffffffffffffffffffffffffffffffff16905090565b60006112f861280a565b600086511161133c576040517f08c379a000000000000000000000000000000000000000000000000000000000815260040161133390613b14565b60405180910390fd5b6000855111611380576040517f08c379a000000000000000000000000000000000000000000000000000000000815260040161137790613b80565b60405180910390fd5b600083116113c3576040517f08c379a00000000000000000000000000000000000000000000000000000000081526004016113ba90613c12565b60405180910390fd5b6000821180156113d5575061016d8211155b611414576040517f08c379a000000000000000000000000000000000000000000000000000000000815260040161140b90613c7e565b60405180910390fd5b600060025490506000620151808461142c91906138c8565b42611437919061396a565b90506000600660008481526020019081526020016000209050828160000181905550338160010160006101000a81548173ffffffffffffffffffffffffffffffffffffffff021916908373ffffffffffffffffffffffffffffffffffffffff160217905550888160020190816114ad9190613e4a565b50878160030190816114bf9190613e4a565b50868160040190816114d19190613e4a565b508581600501819055506000816006018190555081816007018190555042816008018190555060008160090160006101000a81548160ff0219169083600381111561151f5761151e612e02565b5b021790555060008160090160016101000a81548160ff021916908315150217905550600081600a0181905550600960003373ffffffffffffffffffffffffffffffffffffffff1673ffffffffffffffffffffffffffffffffffffffff168152602001908152602001600020839080600181540180825580915050600190039060005260206000200160009091909190915055600260008154809291906115c490613f1c565b9190505550600360008154809291906115dc90613f1c565b91905055503373ffffffffffffffffffffffffffffffffffffffff16837fdc26653af5b99b2da33e2ad69ee6600d9aeccc82b034501db4338309615ca2388b898660405161162c93929190613f64565b60405180910390a382935050505095945050505050565b806002548110611688576040517f08c379a000000000000000000000000000000000000000000000000000000000815260040161167f906136e9565b60405180910390fd5b6116906127c4565b61169861280a565b6000600660008481526020019081526020016000209050806007015442101580156116ca575080600501548160060154105b611709576040517f08c379a000000000000000000000000000000000000000000000000000000000815260040161170090613fee565b60405180910390fd5b60006008600085815260200190815260200160002060003373ffffffffffffffffffffffffffffffffffffffff1673ffffffffffffffffffffffffffffffffffffffff168152602001908152602001600020549050600081116117a1576040517f08c379a00000000000000000000000000000000000000000000000000000000081526004016117989061405a565b60405180910390fd5b600260038111156117b5576117b4612e02565b5b8260090160009054906101000a900460ff1660038111156117d9576117d8612e02565b5b146118455760028260090160006101000a81548160ff0219169083600381111561180657611805612e02565b5b0217905550837f7c387a42b7678e1b26d65927d4a0176444d9c6509a72583dee248753b768db41600260405161183c9190613aad565b60405180910390a25b60006008600086815260200190815260200160002060003373ffffffffffffffffffffffffffffffffffffffff1673ffffffffffffffffffffffffffffffffffffffff1681526020019081526020016000208190555060003373ffffffffffffffffffffffffffffffffffffffff16826040516118c190613a03565b60006040518083038185875af1925050503d80600081146118fe576040519150601f19603f3d011682016040523d82523d6000602084013e611903565b606091505b5050905080611947576040517f08c379a000000000000000000000000000000000000000000000000000000000815260040161193e906140c6565b60405180910390fd5b3373ffffffffffffffffffffffffffffffffffffffff16857f7ca5472b7ea78c2c0141c5a12ee6d170cf4ce8ed06be3d22c8252ddfc7a6a2c48460405161198e9190612c3c565b60405180910390a35050506119a161284b565b5050565b60055481565b6060600a60008373ffffffffffffffffffffffffffffffffffffffff1673ffffffffffffffffffffffffffffffffffffffff168152602001908152602001600020805480602002602001604051908101604052809291908181526020018280548015611a3657602002820191906000526020600020905b815481526020019060010190808311611a22575b50505050509050919050565b6000826002548110611a89576040517f08c379a0000000000000000000000000000000000000000000000000000000008152600401611a80906136e9565b60405180910390fd5b60006006600086815260200190815260200160002060405180610180016040529081600082015481526020016001820160009054906101000a900473ffffffffffffffffffffffffffffffffffffffff1673ffffffffffffffffffffffffffffffffffffffff1673ffffffffffffffffffffffffffffffffffffffff168152602001600282018054611b1a9061366c565b80601f0160208091040260200160405190810160405280929190818152602001828054611b469061366c565b8015611b935780601f10611b6857610100808354040283529160200191611b93565b820191906000526020600020905b815481529060010190602001808311611b7657829003601f168201915b50505050508152602001600382018054611bac9061366c565b80601f0160208091040260200160405190810160405280929190818152602001828054611bd89061366c565b8015611c255780601f10611bfa57610100808354040283529160200191611c25565b820191906000526020600020905b815481529060010190602001808311611c0857829003601f168201915b50505050508152602001600482018054611c3e9061366c565b80601f0160208091040260200160405190810160405280929190818152602001828054611c6a9061366c565b8015611cb75780601f10611c8c57610100808354040283529160200191611cb7565b820191906000526020600020905b815481529060010190602001808311611c9a57829003601f168201915b50505050508152602001600582015481526020016006820154815260200160078201548152602001600882015481526020016009820160009054906101000a900460ff166003811115611d0d57611d0c612e02565b5b6003811115611d1f57611d1e612e02565b5b81526020016009820160019054906101000a900460ff16151515158152602001600a8201548152505090508060e001514210158015611d6557508060a001518160c00151105b8015611dc1575060006008600087815260200190815260200160002060008673ffffffffffffffffffffffffffffffffffffffff1673ffffffffffffffffffffffffffffffffffffffff16815260200190815260200160002054115b9250505092915050565b806002548110611e10576040517f08c379a0000000000000000000000000000000000000000000000000000000008152600401611e07906136e9565b60405180910390fd5b611e186127c4565b611e2061280a565b60003411611e63576040517f08c379a0000000000000000000000000000000000000000000000000000000008152600401611e5a90614158565b60405180910390fd5b600060066000848152602001908152602001600020905060006003811115611e8e57611e8d612e02565b5b8160090160009054906101000a900460ff166003811115611eb257611eb1612e02565b5b14611ef2576040517f08c379a0000000000000000000000000000000000000000000000000000000008152600401611ee9906141c4565b60405180910390fd5b80600701544210611f38576040517f08c379a0000000000000000000000000000000000000000000000000000000008152600401611f2f90614230565b60405180910390fd5b8060010160009054906101000a900473ffffffffffffffffffffffffffffffffffffffff1673ffffffffffffffffffffffffffffffffffffffff163373ffffffffffffffffffffffffffffffffffffffff1603611fca576040517f08c379a0000000000000000000000000000000000000000000000000000000008152600401611fc1906142c2565b60405180910390fd5b60006008600085815260200190815260200160002060003373ffffffffffffffffffffffffffffffffffffffff1673ffffffffffffffffffffffffffffffffffffffff16815260200190815260200160002054036120a35780600a01600081548092919061203790613f1c565b9190505550600a60003373ffffffffffffffffffffffffffffffffffffffff1673ffffffffffffffffffffffffffffffffffffffff1681526020019081526020016000208390806001815401808255809150506001900390600052602060002001600090919091909150555b346008600085815260200190815260200160002060003373ffffffffffffffffffffffffffffffffffffffff1673ffffffffffffffffffffffffffffffffffffffff1681526020019081526020016000206000828254612103919061396a565b925050819055506007600084815260200190815260200160002060405180606001604052803373ffffffffffffffffffffffffffffffffffffffff16815260200134815260200142815250908060018154018082558091505060019003906000526020600020906003020160009091909190915060008201518160000160006101000a81548173ffffffffffffffffffffffffffffffffffffffff021916908373ffffffffffffffffffffffffffffffffffffffff16021790555060208201518160010155604082015181600201555050348160060160008282546121e8919061396a565b925050819055503460046000828254612201919061396a565b92505081905550806005015481600601541061227e5760018160090160006101000a81548160ff0219169083600381111561223f5761223e612e02565b5b0217905550827f7c387a42b7678e1b26d65927d4a0176444d9c6509a72583dee248753b768db4160016040516122759190613aad565b60405180910390a25b3373ffffffffffffffffffffffffffffffffffffffff16837fdcfa71ee125a676f843733d9d39dce2c918ecf9e92f96db4f24bdb5244ed68a03484600601546040516122cb929190613a84565b60405180910390a3506122dc61284b565b5050565b6008602052816000526040600020602052806000526040600020600091509150505481565b60045481565b612313612855565b61231b6127c4565b600060055411612360576040517f08c379a00000000000000000000000000000000000000000000000000000000081526004016123579061432e565b60405180910390fd5b60006005549050600060058190555060006123796112c4565b73ffffffffffffffffffffffffffffffffffffffff168260405161239c90613a03565b60006040518083038185875af1925050503d80600081146123d9576040519150601f19603f3d011682016040523d82523d6000602084013e6123de565b606091505b5050905080612422576040517f08c379a00000000000000000000000000000000000000000000000000000000081526004016124199061439a565b60405180910390fd5b505061242c61284b565b565b6060816002548110612475576040517f08c379a000000000000000000000000000000000000000000000000000000000815260040161246c906136e9565b60405180910390fd5b60076000848152602001908152602001600020805480602002602001604051908101604052809291908181526020016000905b8282101561254457838290600052602060002090600302016040518060600160405290816000820160009054906101000a900473ffffffffffffffffffffffffffffffffffffffff1673ffffffffffffffffffffffffffffffffffffffff1673ffffffffffffffffffffffffffffffffffffffff16815260200160018201548152602001600282015481525050815260200190600101906124a8565b50505050915050919050565b612558612855565b6000479050600081116125a0576040517f08c379a000000000000000000000000000000000000000000000000000000000815260040161259790614406565b60405180910390fd5b60006125aa6112c4565b73ffffffffffffffffffffffffffffffffffffffff16826040516125cd90613a03565b60006040518083038185875af1925050503d806000811461260a576040519150601f19603f3d011682016040523d82523d6000602084013e61260f565b606091505b5050905080612653576040517f08c379a000000000000000000000000000000000000000000000000000000000815260040161264a90614472565b60405180910390fd5b61265b6112c4565b73ffffffffffffffffffffffffffffffffffffffff167f5fafa99d0643513820be26656b45130b01e1c03062e1266bf36f88cbd3bd9695836040516126a09190612c3c565b60405180910390a25050565b600960205281600052604060002081815481106126c857600080fd5b90600052602060002001600091509150505481565b60006008600084815260200190815260200160002060008373ffffffffffffffffffffffffffffffffffffffff1673ffffffffffffffffffffffffffffffffffffffff16815260200190815260200160002054905092915050565b61271081565b612746612855565b600073ffffffffffffffffffffffffffffffffffffffff168173ffffffffffffffffffffffffffffffffffffffff16036127b85760006040517f1e4fbdf70000000000000000000000000000000000000000000000000000000081526004016127af91906132bc565b60405180910390fd5b6127c18161293f565b50565b600260005403612800576040517f3ee5aeb500000000000000000000000000000000000000000000000000000000815260040160405180910390fd5b6002600081905550565b6128126111eb565b15612849576040517fd93c066500000000000000000000000000000000000000000000000000000000815260040160405180910390fd5b565b6001600081905550565b61285d612a67565b73ffffffffffffffffffffffffffffffffffffffff1661287b6112c4565b73ffffffffffffffffffffffffffffffffffffffff16146128da5761289e612a67565b6040517f118cdaa70000000000000000000000000000000000000000000000000000000081526004016128d191906132bc565b60405180910390fd5b565b6128e4612a6f565b6000600160146101000a81548160ff0219169083151502179055507f5db9ee0a495bf2e6ff9c91a7834c1ba4fdd244a5e8aa4e537bd38aeae4b073aa612928612a67565b60405161293591906132bc565b60405180910390a1565b6000600160009054906101000a900473ffffffffffffffffffffffffffffffffffffffff16905081600160006101000a81548173ffffffffffffffffffffffffffffffffffffffff021916908373ffffffffffffffffffffffffffffffffffffffff1602179055508173ffffffffffffffffffffffffffffffffffffffff168173ffffffffffffffffffffffffffffffffffffffff167f8be0079c531659141344cd1fd0a4f28419497f9722a3daafe3b4186f6b6457e060405160405180910390a35050565b612a0d61280a565b60018060146101000a81548160ff0219169083151502179055507f62e78cea01bee320cd4e420270b5ea74000d11b0c9f74754ebdbfc544b05a258612a50612a67565b604051612a5d91906132bc565b60405180910390a1565b600033905090565b612a776111eb565b612aad576040517f8dfc202b00000000000000000000000000000000000000000000000000000000815260040160405180910390fd5b565b60405180610180016040528060008152602001600073ffffffffffffffffffffffffffffffffffffffff1681526020016060815260200160608152602001606081526020016000815260200160008152602001600081526020016000815260200160006003811115612b2457612b23612e02565b5b8152602001600015158152602001600081525090565b600082825260208201905092915050565b7f446972656374207061796d656e7473206e6f7420616363657074656400000000600082015250565b6000612b81601c83612b3a565b9150612b8c82612b4b565b602082019050919050565b60006020820190508181036000830152612bb081612b74565b9050919050565b7f46756e6374696f6e206e6f7420666f756e640000000000000000000000000000600082015250565b6000612bed601283612b3a565b9150612bf882612bb7565b602082019050919050565b60006020820190508181036000830152612c1c81612be0565b9050919050565b6000819050919050565b612c3681612c23565b82525050565b6000602082019050612c516000830184612c2d565b92915050565b6000604051905090565b600080fd5b600080fd5b600073ffffffffffffffffffffffffffffffffffffffff82169050919050565b6000612c9682612c6b565b9050919050565b612ca681612c8b565b8114612cb157600080fd5b50565b600081359050612cc381612c9d565b92915050565b612cd281612c23565b8114612cdd57600080fd5b50565b600081359050612cef81612cc9565b92915050565b60008060408385031215612d0c57612d0b612c61565b5b6000612d1a85828601612cb4565b9250506020612d2b85828601612ce0565b9150509250929050565b600060208284031215612d4b57612d4a612c61565b5b6000612d5984828501612ce0565b91505092915050565b6000612d6d82612c6b565b9050919050565b612d7d81612d62565b82525050565b600081519050919050565b60005b83811015612dac578082015181840152602081019050612d91565b60008484015250505050565b6000601f19601f8301169050919050565b6000612dd482612d83565b612dde8185612b3a565b9350612dee818560208601612d8e565b612df781612db8565b840191505092915050565b7f4e487b7100000000000000000000000000000000000000000000000000000000600052602160045260246000fd5b60048110612e4257612e41612e02565b5b50565b6000819050612e5382612e31565b919050565b6000612e6382612e45565b9050919050565b612e7381612e58565b82525050565b60008115159050919050565b612e8e81612e79565b82525050565b600061018082019050612eaa600083018f612c2d565b612eb7602083018e612d74565b8181036040830152612ec9818d612dc9565b90508181036060830152612edd818c612dc9565b90508181036080830152612ef1818b612dc9565b9050612f0060a083018a612c2d565b612f0d60c0830189612c2d565b612f1a60e0830188612c2d565b612f28610100830187612c2d565b612f36610120830186612e6a565b612f44610140830185612e85565b612f52610160830184612c2d565b9d9c50505050505050505050505050565b60008060408385031215612f7a57612f79612c61565b5b6000612f8885828601612ce0565b9250506020612f9985828601612ce0565b9150509250929050565b612fac81612c8b565b82525050565b6000606082019050612fc76000830186612fa3565b612fd46020830185612c2d565b612fe16040830184612c2d565b949350505050565b612ff281612c23565b82525050565b61300181612d62565b82525050565b600082825260208201905092915050565b600061302382612d83565b61302d8185613007565b935061303d818560208601612d8e565b61304681612db8565b840191505092915050565b61305a81612e58565b82525050565b61306981612e79565b82525050565b6000610180830160008301516130886000860182612fe9565b50602083015161309b6020860182612ff8565b50604083015184820360408601526130b38282613018565b915050606083015184820360608601526130cd8282613018565b915050608083015184820360808601526130e78282613018565b91505060a08301516130fc60a0860182612fe9565b5060c083015161310f60c0860182612fe9565b5060e083015161312260e0860182612fe9565b50610100830151613137610100860182612fe9565b5061012083015161314c610120860182613051565b50610140830151613161610140860182613060565b50610160830151613176610160860182612fe9565b508091505092915050565b6000602082019050818103600083015261319b818461306f565b905092915050565b60006020820190506131b86000830184612e85565b92915050565b6000602082840312156131d4576131d3612c61565b5b60006131e284828501612cb4565b91505092915050565b600081519050919050565b600082825260208201905092915050565b6000819050602082019050919050565b60006132238383612fe9565b60208301905092915050565b6000602082019050919050565b6000613247826131eb565b61325181856131f6565b935061325c83613207565b8060005b8381101561328d5781516132748882613217565b975061327f8361322f565b925050600181019050613260565b5085935050505092915050565b600060208201905081810360008301526132b4818461323c565b905092915050565b60006020820190506132d16000830184612fa3565b92915050565b600080fd5b600080fd5b7f4e487b7100000000000000000000000000000000000000000000000000000000600052604160045260246000fd5b61331982612db8565b810181811067ffffffffffffffff82111715613338576133376132e1565b5b80604052505050565b600061334b612c57565b90506133578282613310565b919050565b600067ffffffffffffffff821115613377576133766132e1565b5b61338082612db8565b9050602081019050919050565b82818337600083830152505050565b60006133af6133aa8461335c565b613341565b9050828152602081018484840111156133cb576133ca6132dc565b5b6133d684828561338d565b509392505050565b600082601f8301126133f3576133f26132d7565b5b813561340384826020860161339c565b91505092915050565b600080600080600060a0868803121561342857613427612c61565b5b600086013567ffffffffffffffff81111561344657613445612c66565b5b613452888289016133de565b955050602086013567ffffffffffffffff81111561347357613472612c66565b5b61347f888289016133de565b945050604086013567ffffffffffffffff8111156134a05761349f612c66565b5b6134ac888289016133de565b93505060606134bd88828901612ce0565b92505060806134ce88828901612ce0565b9150509295509295909350565b600080604083850312156134f2576134f1612c61565b5b600061350085828601612ce0565b925050602061351185828601612cb4565b9150509250929050565b600081519050919050565b600082825260208201905092915050565b6000819050602082019050919050565b61355081612c8b565b82525050565b60608201600082015161356c6000850182613547565b50602082015161357f6020850182612fe9565b5060408201516135926040850182612fe9565b50505050565b60006135a48383613556565b60608301905092915050565b6000602082019050919050565b60006135c88261351b565b6135d28185613526565b93506135dd83613537565b8060005b8381101561360e5781516135f58882613598565b9750613600836135b0565b9250506001810190506135e1565b5085935050505092915050565b6000602082019050818103600083015261363581846135bd565b905092915050565b7f4e487b7100000000000000000000000000000000000000000000000000000000600052602260045260246000fd5b6000600282049050600182168061368457607f821691505b6020821081036136975761369661363d565b5b50919050565b7f43616d706169676e20646f6573206e6f74206578697374000000000000000000600082015250565b60006136d3601783612b3a565b91506136de8261369d565b602082019050919050565b60006020820190508181036000830152613702816136c6565b9050919050565b7f4f6e6c792063616d706169676e2063726561746f722063616e20706572666f7260008201527f6d207468697320616374696f6e00000000000000000000000000000000000000602082015250565b6000613765602d83612b3a565b915061377082613709565b604082019050919050565b6000602082019050818103600083015261379481613758565b9050919050565b7f43616d706169676e20636f6e646974696f6e73206e6f74206d657420666f722060008201527f7769746864726177616c00000000000000000000000000000000000000000000602082015250565b60006137f7602a83612b3a565b91506138028261379b565b604082019050919050565b60006020820190508181036000830152613826816137ea565b9050919050565b7f46756e647320616c72656164792077697468647261776e000000000000000000600082015250565b6000613863601783612b3a565b915061386e8261382d565b602082019050919050565b6000602082019050818103600083015261389281613856565b9050919050565b7f4e487b7100000000000000000000000000000000000000000000000000000000600052601160045260246000fd5b60006138d382612c23565b91506138de83612c23565b92508282026138ec81612c23565b9150828204841483151761390357613902613899565b5b5092915050565b7f4e487b7100000000000000000000000000000000000000000000000000000000600052601260045260246000fd5b600061394482612c23565b915061394f83612c23565b92508261395f5761395e61390a565b5b828204905092915050565b600061397582612c23565b915061398083612c23565b925082820190508082111561399857613997613899565b5b92915050565b60006139a982612c23565b91506139b483612c23565b92508282039050818111156139cc576139cb613899565b5b92915050565b600081905092915050565b50565b60006139ed6000836139d2565b91506139f8826139dd565b600082019050919050565b6000613a0e826139e0565b9150819050919050565b7f5472616e7366657220746f2063726561746f72206661696c6564000000000000600082015250565b6000613a4e601a83612b3a565b9150613a5982613a18565b602082019050919050565b60006020820190508181036000830152613a7d81613a41565b9050919050565b6000604082019050613a996000830185612c2d565b613aa66020830184612c2d565b9392505050565b6000602082019050613ac26000830184612e6a565b92915050565b7f5469746c652063616e6e6f7420626520656d7074790000000000000000000000600082015250565b6000613afe601583612b3a565b9150613b0982613ac8565b602082019050919050565b60006020820190508181036000830152613b2d81613af1565b9050919050565b7f4465736372697074696f6e2063616e6e6f7420626520656d7074790000000000600082015250565b6000613b6a601b83612b3a565b9150613b7582613b34565b602082019050919050565b60006020820190508181036000830152613b9981613b5d565b9050919050565b7f476f616c20616d6f756e74206d7573742062652067726561746572207468616e60008201527f2030000000000000000000000000000000000000000000000000000000000000602082015250565b6000613bfc602283612b3a565b9150613c0782613ba0565b604082019050919050565b60006020820190508181036000830152613c2b81613bef565b9050919050565b7f4475726174696f6e206d75737420626520312d33363520646179730000000000600082015250565b6000613c68601b83612b3a565b9150613c7382613c32565b602082019050919050565b60006020820190508181036000830152613c9781613c5b565b9050919050565b60008190508160005260206000209050919050565b60006020601f8301049050919050565b600082821b905092915050565b600060088302613d007fffffffffffffffffffffffffffffffffffffffffffffffffffffffffffffffff82613cc3565b613d0a8683613cc3565b95508019841693508086168417925050509392505050565b6000819050919050565b6000613d47613d42613d3d84612c23565b613d22565b612c23565b9050919050565b6000819050919050565b613d6183613d2c565b613d75613d6d82613d4e565b848454613cd0565b825550505050565b600090565b613d8a613d7d565b613d95818484613d58565b505050565b5b81811015613db957613dae600082613d82565b600181019050613d9b565b5050565b601f821115613dfe57613dcf81613c9e565b613dd884613cb3565b81016020851015613de7578190505b613dfb613df385613cb3565b830182613d9a565b50505b505050565b600082821c905092915050565b6000613e2160001984600802613e03565b1980831691505092915050565b6000613e3a8383613e10565b9150826002028217905092915050565b613e5382612d83565b67ffffffffffffffff811115613e6c57613e6b6132e1565b5b613e76825461366c565b613e81828285613dbd565b600060209050601f831160018114613eb45760008415613ea2578287015190505b613eac8582613e2e565b865550613f14565b601f198416613ec286613c9e565b60005b82811015613eea57848901518255600182019150602085019450602081019050613ec5565b86831015613f075784890151613f03601f891682613e10565b8355505b6001600288020188555050505b505050505050565b6000613f2782612c23565b91507fffffffffffffffffffffffffffffffffffffffffffffffffffffffffffffffff8203613f5957613f58613899565b5b600182019050919050565b60006060820190508181036000830152613f7e8186612dc9565b9050613f8d6020830185612c2d565b613f9a6040830184612c2d565b949350505050565b7f526566756e6420636f6e646974696f6e73206e6f74206d657400000000000000600082015250565b6000613fd8601983612b3a565b9150613fe382613fa2565b602082019050919050565b6000602082019050818103600083015261400781613fcb565b9050919050565b7f4e6f20636f6e747269627574696f6e20666f756e640000000000000000000000600082015250565b6000614044601583612b3a565b915061404f8261400e565b602082019050919050565b6000602082019050818103600083015261407381614037565b9050919050565b7f526566756e64207472616e73666572206661696c656400000000000000000000600082015250565b60006140b0601683612b3a565b91506140bb8261407a565b602082019050919050565b600060208201905081810360008301526140df816140a3565b9050919050565b7f436f6e747269627574696f6e206d75737420626520677265617465722074686160008201527f6e20300000000000000000000000000000000000000000000000000000000000602082015250565b6000614142602383612b3a565b915061414d826140e6565b604082019050919050565b6000602082019050818103600083015261417181614135565b9050919050565b7f43616d706169676e206973206e6f742061637469766500000000000000000000600082015250565b60006141ae601683612b3a565b91506141b982614178565b602082019050919050565b600060208201905081810360008301526141dd816141a1565b9050919050565b7f43616d706169676e20646561646c696e65206861732070617373656400000000600082015250565b600061421a601c83612b3a565b9150614225826141e4565b602082019050919050565b600060208201905081810360008301526142498161420d565b9050919050565b7f43726561746f722063616e6e6f7420636f6e7472696275746520746f206f776e60008201527f2063616d706169676e0000000000000000000000000000000000000000000000602082015250565b60006142ac602983612b3a565b91506142b782614250565b604082019050919050565b600060208201905081810360008301526142db8161429f565b9050919050565b7f4e6f206665657320746f20776974686472617700000000000000000000000000600082015250565b6000614318601383612b3a565b9150614323826142e2565b602082019050919050565b600060208201905081810360008301526143478161430b565b9050919050565b7f466565207769746864726177616c206661696c65640000000000000000000000600082015250565b6000614384601583612b3a565b915061438f8261434e565b602082019050919050565b600060208201905081810360008301526143b381614377565b9050919050565b7f4e6f2066756e647320746f207769746864726177000000000000000000000000600082015250565b60006143f0601483612b3a565b91506143fb826143ba565b602082019050919050565b6000602082019050818103600083015261441f816143e3565b9050919050565b7f456d657267656e6379207769746864726177616c206661696c65640000000000600082015250565b600061445c601b83612b3a565b915061446782614426565b602082019050919050565b6000602082019050818103600083015261448b8161444f565b905091905056fea2646970667358221220a985538f64dd52142b16a8cbf101cc734e9d2a7518047c2382a9d8b6254fcde964736f6c634300081c0033",
  "linkReferences": {},
  "deployedLinkReferences": {}
}